:020000040000FA
:060000008A018B01522869
:080008004E018C1240010C08AE
:10001000F40098019A017008920072089400710827
:10002000980073089A00751409000B007E347D3423
:100030007B3477346F345F343F34A30ABE34BD342D
:10004000BB34B734AF349F343F34A30ADE34DD34DD
:10005000DB34D734CF349F345F34A30AEE34ED342D
:10006000EB34E734CF34AF346F34A30116280B00E0
:1000700080344034203410340B0001340234043412
:10008000083410342034403480340B007D34443440
:100090007A346E3447342F343F3464347F346F34D1
:1000A0005C3433344001003098003F30920000301F
:1000B0009A003F3094004F014530960082309700FF
:1000C000673098003F30990051309A001E309B00F5
:1000D0007E010030B8001430B9000030BA00510180
:1000E00060308D0000308F000030910001309300AF
:1000F0000030900000309200450100309000003048
:100100008F0000309100FF308D00F0308E004B01E9
:1001100051309F0080309E00B2309D004E01203053
:1001200096000030970000309800003099000030B1
:100130009A0000309B0000309C0000309D00400180
:1001400020308400850103011A00841FA4283F3059
:10015000F000F2004E018C124001C0308B005C3088
:10016000A4003330A5004E019018B92075180E2157
:10017000B32890104001A00A20083C3A031DCD2866
:10018000A001A10A21083C3A031DCD28A101A20A21
:100190002208183A031DCD28A2012A1AE7282108AF
:1001A000F820A8000F394520A700280E0F39452058
:1001B000A6002208F820A8000F394520A500280E27
:1001C0000F39031D4520A400201C2414080020081A
:1001D000F820A8000F394520A700280E0F39452028
:1001E000A6005C30A4003330A500201824140800B9
:1001F000A800280E28070F398318163E8318063EDC
:10020000063E831CFA3E281A1B3E831CFA3EA81A9F
:10021000303E281B603EA81B203E080040017510A0
:100220002303F039031D1C29230307393C20FF3A1F
:10023000AA05FF3AF41DAA04A30A23081520F20018
:100240007010F010721B7014F21BF014230D303973
:10025000A800280E84003720F3002430840785018D
:10026000230807393C2000050319F301F101731B32
:100270007114F31BF1142308031D0800AA1AA0012E
:100280002A082B0603190800A8002A19281D4E2940
:10029000A203220A031D4E291730A200AA19A81D85
:1002A0005629A20A2208183A0319A2012A18281C62
:1002B0005F29A103210A031D5F293B30A100AA1871
:1002C000A81C6729A10A21083C3A0319A1012A08A0
:0402D000AB00CD288A
:100F000043346834613472346C3469345034583446
:100F100020344A342E3446347534633469346B34A7
:100F2000303438342F34303433342F343234323494
:040F30000034003455
:020000040001F9
:02000E00EC3FC5
:02001000FE37B9
:020012009F3F0E
:02001400EF1FDC
:02001600FF3FAA
:00000001FF
